:100000000C944A020C9467020C9467020C946702E9
:100010000C9467020C9467020C9467020C946702BC
:100020000C9467020C9467020C9467020C946702AC
:100030000C9467020C9467020C9467020C9467029C
:100040000C9467020C9467020C94680B0C943D0BA3
:100050000C9467020C9467020C9467020C9467027C
:100060000C9467020C9467020105040507050A0554
:100070002C052C052C050D051005160513052C0562
:100080002C052C052C052C052C052C052C052C05E8
:100090002C052C052C052C0519052805E407E90776
:1000A0000A080A08ED07F1070A08F5070A080A080E
:1000B0000A080A080A080A080A080A080A080A08B0
:1000C0000A080A080A080A08F9070A08FD070108C9
:1000D0000A080508000000C8600660CE1D0019C8A7
:1000E000790614A5E31800F8E007E0FFFF5A1FF8AF
:1000F000FF07FFFF3F32373B306E003F31336E006A
:10010000306E003F36323B313B323B363B373B387B
:100110003B396300EEEEE0EEEEE0EEEEE0EEEEE018
:10012000EEEEE0EEEEE0EEEEE0EEEEE0EEEEE0EE35
:10013000EEE0EEEEE0EEEEE0EEEEE0EEEEE0EEEE25
:10014000E0EEEEE0EEEEE0EEEEE0EEEEE0EEEEE023
:10015000EEEEE0EEEEE0EEEEE0EEEEE0EEEEE0EE05
:10016000EEE0EEEEE0EEEEE0EEEEE0EEEEE0EEEEF5
:10017000E0EEEEE0000000444040AA0000AFFA00CC
:1001800046EC40A248A0696AD024000024442042E2
:1001900022400EEE0004E40000048000E0000000B5
:1001A000400248004AAA404C44E0C248E0E262E013
:1001B000AAE220E8E2E0E8EAE0E22220EAEAE0EA75
:1001C000E2200040400040482484200E0E00842499
:1001D00080E260404EE8404AEAA0CACAC06888602F
:1001E000CAAAC0E8E8E0E8E88068EA60AAEAA0E411
:1001F00044E0222A40AACAA08888E0AEEAA0AEEE77
:10020000A04AAA40CAC8804AAE60CAECA06842C0F0
:10021000E44440AAAA60AAA440AAEEA0AA4AA0AABE
:100220004440E248E06444600842006222604A00C0
:100230000000000F840000006AE088CAC000686007
:10024000226A600EE86024E44006A6E088CAA04066
:10025000444040448008ACA00C44E000EEA000CA3A
:10026000A004AA4000CAC8006A620CA88006C2C0E6
:1002700004E44000AA6000AE4000AEE000A4A0008C
:10028000AE2C0E6CE024C4204404408464805A00E8
:10029000004AAE00EEEEE0EEEEE0EEEEE0EEEEE076
:1002A000EEEEE0EEEEE0EEEEE0EEEEE0EEEEE0EEB4
:1002B000EEE0EEEEE0EEEEE0EEEEE0EEEEE0EEEEA4
:1002C000E0EEEEE0EEEEE0EEEEE0EEEEE0EEEEE0A2
:1002D000EEEEE0EEEEE0EEEEE0EEEEE0EEEEE0EE84
:1002E000EEE0EEEEE0EEEEE0EEEEE0EEEEE0EEEE74
:1002F000E0EEEEE0EEEEE0EEEEE0EEEEE0EEEEE072
:10030000EEEEE0EEEEE0EEEEE0EEEEE0EEEEE0EE53
:10031000EEE0EEEEE0EEEEE0EEEEE0EEEEE006C653
:10032000000C6C00828282A5A5A5DBDBDB44444483
:1003300044C44444CC4466E66600E66600CC4466A9
:10034000EE6666666600EE6666EE0066E00044CC29
:100350000000C44444700044F00000F44444744479
:1003600000F00044F4444477446676666677000003
:10037000776666FF0000FF6666776600FF0066FF2F
:100380006644FF0066F00000FF4400F666667000F9
:1003900044770000774400766666F66644FF44447E
:1003A000C000007444FFFFFF000FFFCCCCCC333300
:1003B00033FFF000EEEEE0EEEEE0EEEEE0EEEEE02B
:1003C000EEEEE0EEEEE0EEEEE0EEEEE0EEEEE0EE93
:1003D000EEE0EEEEE0EEEEE0EEEEE0EEEEE0EEEE83
:1003E000E0EEEEE0EEEEE0EEEEE0EEEEE0EEEEE081
:1003F000EEEEE0EEEEE0EEEEE0EEEEE0EEEEE0EE63
:10040000EEE0EEEEE0EEEEE0EEEEE0EEEEE00066C8
:1004100000EEEEE013CB05392C003402CF0300C10F
:1004200030E803850078EA020000ED0464031281DD
:10043000F70120C00123C10110C5023E28C7018673
:100440003601C83A0155B1020018B603088227F2F6
:100450000100260101E00F0F312B0C0E084EF13781
:100460000710030E0900E10F000E1403110731C13C
:1004700048080F0C31360F11001B5B481B5B4A000C
:10048000565432323020456D756C61746F7220762F
:10049000312E300011241FBECFEFD8E0DEBFCDBF1C
:1004A00011E0A0E0B1E0E6EEF8E102C005900D92A7
:1004B000AC30B107D9F722E0ACE0B1E001C01D9249
:1004C000A530B207E1F70E94ED0B0C94710C0C946F
:1004D0000000ECE0F1E080E021E0982F9770973089
:1004E00009F020E021938F5F8035B1F780910301FF
:1004F000882319F0823019F008950C94B2040C94FA
:10050000A9050C9469028F70E82FF0E0EE0FFF1F31
:10051000EC52FF4F859194910895E0915F01F0E0D6
:10052000E45FFE4F81E080830895E0915F01F0E099
:10053000E45FFE4F10820895ECE0F1E080E58E0F5D
:1005400011928E13FDCF089580915F0191E0980F75
:10055000903548F4892FE92FF0E0E45FFE4F908159
:100560009923A1F304C090935F01903511F4809317
:100570005F01089580915E018F5F883211F0809352
:100580005E01089580915E01882319F08150809367
:100590005E01089580915F01882319F08150809356
:1005A0005F01089580915F018F5F803511F0809326
:1005B0005F01089590915E01890F883208F087E20B
:1005C00080935E01089590915E01292F281B822F50
:1005D000981303C090935E010895992311F09150F0
:1005E000F7CF10925E01089590915F01292F281B8B
:1005F000822F981303C090935F010895992311F0FF
:100600009150F7CF10925F01089590915F01890F8B
:10061000803508F08FE480935F01089581508093C6
:100620005F01615060935E01813518F08FE4809323
:100630005F01693218F087E280935E01089510929D
:100640005F0110925E01089510925F0108958091FC
:100650005E018F5F883211F080935E0108950F93E1
:100660001F93CF93DF931F92CDB7DEB790915F01B9
:10067000903571F490910001992339F010925F0147
:1006800089830E942703898103C09FE490935F01BF
:1006900020915F0100915E0196E0099F8001112485
:1006A00094E0299F9001112440915C0150915D01DB
:1006B00060910101709102010E94FF0880915F0129
:1006C0008F5F813508F080E580935F010F90DF91A7
:1006D000CF911F910F910895CF93C82F809103015F
:1006E000882331F0823069F48C2F0E94C30503C047
:1006F0008C2F0E94C004882321F08C2FCF910C9462
:100700002F03CF91089580915E01882319F08150C5
:1007100080935E0108950F931F9380915F0124E001
:10072000829FC001112460915E0100915C011091D3
:100730005D0140E451E0481B590B26E0629FB00187
:10074000112426E030E00E945B0A1F910F9108956A
:100750000F931F930E948B0380915E018732B1F04B
:1007600090E0019626E0289FB001299F700D11248A
:1007700000915C0110915D0120EF30E0261B370BEA
:1007800040E451E080E090E00E945B0A1F910F91ED
:1007900008950F931F9300915C0110915D0196E005
:1007A000899FB001112426E030E040E451E080E070
:1007B00090E00E945B0A1F910F91089580915F0164
:1007C0000C94C9030F931F9340915F0160915E01E8
:1007D00000915C0110915D0184E0489FA00111240B
:1007E00086E0689FB001112426E030E080E090E0D0
:1007F0000E945B0A1F910F9108950F931F930E940F
:10080000E20380915E018823A1F000915C011091C8
:100810005D0190E0019746E0489F9001499F300DAF
:10082000112440E451E060E070E080E090E00E943C
:100830005B0A1F910F91089580915C0190915D0179
:100840000C94980A0F931F93E0915F0124E0E29FBC
:10085000F001112460915E0196E0699FB0011124BE
:1008600024E0829FA0011124CA018E0F9F1F8134B2
:10087000914020F040E451E04E1B5F0B00915C0181
:1008800010915D0126E030E0CF010E945B0A1F91CC
:100890000F910895CF92DF92EF92FF920F931F93E3
:1008A000CF93DF9300D000D01F92CDB7DEB78E017B
:1008B0000F5F1F4F25E0F80111922A95E9F760E1DB
:1008C00077E20E94570C6B01698368EE73E00E9427
:1008D000570C7B016A8364E670E00E94570CFB01B1
:1008E0006B836AE070E00E94570C6C838D83CD2887
:1008F00041F4EF2841F4EF2B41F4672B41F083E002
:1009000007C080E005C081E003C082E001C084E050
:10091000FF24F394F80EF801E80FF11D8081805D4B
:100920000E94AD0B8F2D853099F70F900F900F908F
:100930000F900F90DF91CF911F910F91FF90EF904B
:10094000DF90CF900895CF93DF93FC018491EF0166
:100950002196882321F00E94AD0BFE01F7CFDF9195
:10096000CF91089588EB97E0909302018093010165
:1009700010925D0110925C010E941F030C941C04F4
:10098000E82F80916401909165018130910551F1CA
:100990001CF4892B49F090C08230910509F466C09F
:1009A000039709F474C088C0EA30B1F04CF4E73022
:1009B00009F484C0E93009F07FC00E94A4027EC01F
:1009C000ED3069F0EB3109F077C081E090E0909371
:1009D00065018093640172C00E9427036FC00E946A
:1009E00024036CC08E2FEE0F990BAA0BBB0BFC01DE
:1009F000E154F109EA31F10578F5EC5CFF4F0C9414
:100A00006B0C0E94C2022DC00E94BA022AC00E9432
:100A1000D20227C00E94CA0224C00E941F0321C024
:100A20000E9483031EC00E948B031BC00E94A80368
:100A300018C082E090E09093650180936401109269
:100A4000630110926201109261011092600136C040
:100A50008BE40E94AD0B05C01092650110926401F9
:100A60002BC0109265011092640128C0E032CCF3D3
:100A700083E090E090936501809364018E2FEE0FE8
:100A8000990B4F97909361018093600117C010926A
:100A9000650110926401E0328CF08E2FEE0F990BFD
:100AA0004F97909363018093620160916001709110
:100AB00061010E940E0302C081E0089580E0089564
:100AC000EDE6F1E01192119281E0ED37F807D1F7F0
:100AD00010926C0182E080937D0108951F93CF9363
:100AE000DF9320916B0120FD02C080E001C088E00F
:100AF00090910701C92FC295C770C80F9770D82F62
:100B0000D90F122F187023FD02C08C2F01C08D2F1A
:100B10000E9483029093020180930101111102C08F
:100B20008D2F01C08C2F0E94830290935D018093D2
:100B30005C01DF91CF911F9108958091040180FFA6
:100B400005C08BE10E94AD0B8BE501C08BE90C94D5
:100B5000AD0B80E78093070110926B018093060133
:100B600010926A01109269011092680181E08093ED
:100B7000050180930401809300010E946E050E948C
:100B80001F030C941C041F93CF93DF9390910401D7
:100B900020917D01C92FC27091FF83C0C22F2130E7
:100BA000E1F038F0263009F464C0273009F46AC057
:100BB00020C38A3009F4B7C03CF4873009F41AC363
:100BC000893009F4AAC015C38D3021F08B3109F4A6
:100BD00041C10FC30E9424030DC3843479F19CF4F6
:100BE0008C3309F440C034F4883109F43FC08A31B1
:100BF000E9F1FCC28234E1F0F4F4813409F0F6C288
:100C00000E94C20233C08A34F9F044F48834C9F037
:100C1000893409F0EBC20E94830328C08935B9F0FA
:100C20008A35E9F08B3409F0E1C20E948B031EC0C3
:100C30000E94BA021BC00E94D20218C00E94CA02BF
:100C400015C00E941F0312C00E94A8030FC086E0B7
:100C500080937D01109267011092660174C08BE44D
:100C60000E94AD0B03C09D7F9093040110927D0103
:100C70006AC08032DCF397E090937D018F518093BE
:100C8000660161C010927D0180320CF45CC08F510E
:100C9000809367016091660170E090E00E940E030E
:100CA00052C0223009F4BFC030F4222369F0213051
:100CB00009F44BC09FC2243009F498C208F40CC256
:100CC000253009F4FDC096C28B3151F170F48930A2
:100CD00021F130F48730B9F1E8F48823A1F189C219
:100CE0008D3008F18D3021F184C2883821F140F433
:100CF0008438C9F08538D1F08F3709F07AC223C023
:100D0000803909F18B39D1F08D3809F072C20E9417
:100D1000830319C00E94CA0216C00E94A4026AC2BC
:100D20000E94600597C00E94270364C20E942703A7
:100D30000E94240308C00E948D025CC20E946005CC
:100D400082E080937D01C0E055C2853409F461C022
:100D500058F58A3109F44AC2F0F4883009F446C0E3
:100D6000883109F443C2873009F044C280910701F9
:100D70008093060180916B0180936A0180915F01ED
:100D80008093690180915E018093680180910001E8
:100D9000809305012BC2833209F443C0843419F1D6
:100DA0008B3109F457C026C2803550F48E34D8F404
:100DB0008834A1F18D3409F01DC20E94830316C24C
:100DC0008A3509F460C128F4803509F013C285E042
:100DD00042C08B3531F0833609F00CC20E94A90560
:100DE00005C282E038C00E94270300C2809106013C
:100DF0008093070180916A0180936B018091690162
:100E000080935F018091680180935E01809105016C
:100E10009AC10E9427030E942403E8C10E948D0208
:100E2000E5C184E018C0282F30E0A90140535109E2
:100E30004A30510508F4BCC1843409F479C0F0F497
:100E40008B3309F449C050F48A3109F4CFC18B3196
:100E500009F0CCC181E080937D01CCC1813409F4DB
:100E600046C028F48F3309F0C1C183E0F4CF823447
:100E700009F448C0833409F450C0B8C1833609F47A
:100E800002C178F48A3409F4E9C020F4883409F402
:100E90005AC0ACC18B3409F4CCC0883509F4BEC04B
:100EA000A5C1873609F463C020F4863609F44BC027
:100EB0009DC18D3609F46AC08E3609F4E9C096C129
:100EC000282F30E0A901405351094A30510508F458
:100ED0006FC18B3309F081C180916C018F5F80936A
:100EE0006C01883008F42FCF10926C0183C180917F
:100EF0006D0190916E01009711F481E090E00E94E5
:100F0000E30274C180916D0190916E01009711F41C
:100F100081E090E00E94DA0269C180916D019091B8
:100F20006E01009711F481E090E00E9405035EC11C
:100F300080916D0190916E01009711F481E090E035
:100F40000E94F40253C160916D0170916E016115B0
:100F5000710511F461E070E080916F019091700172
:100F6000009711F481E090E00E940E033FC1809150
:100F70006D0190916E01009719F40E94950236C19F
:100F8000039709F033C10E949C0230C180916C012B
:100F90008F5F883011F080936C01D0E010E7809172
:100FA0006C01D81708F022C1ED2FF0E0EE0FFF1F03
:100FB000E359FE4F0190F081E02DEC31F10550F541
:100FC000E25BFF4F0C946B0C10926B0110930701C6
:100FD00021C080916B0181601BC080916B01826098
:100FE00017C080916B01846013C080916B01886091
:100FF0000FC080916B018E7F0BC080916B018D7F44
:1010000007C080916B018B7F03C080916B01877F4C
:1010100080936B010E946E05DF5FC1CF80916D01EF
:1010200090916E01009711F481E090E00E942204FB
:10103000DDC080916D0190916E01009719F40E94BE
:101040008B03D4C08130910519F40E94E203CEC015
:10105000029709F0CBC00E94DE03C8C080916D01E9
:1010600090916E01009719F40E94A803BFC08130CF
:10107000910519F40E94FD03B9C0029709F0B6C0AA
:101080000E941C04B3C00E949D0583E091E08DC0C6
:1010900080916D0190916E0185309105C1F00697A8
:1010A00009F0A4C00E949D0580915E0190E0019628
:1010B0000E944A048BE30E94AD0B80915F0190E097
:1010C00001960E944A0482E50E94AD0B8FC00E94E7
:1010D0009D0580E091E069C0282F30E0A9014053D0
:1010E00051094A30510590F440916D0150916E01C3
:1010F0006AE0649FC001659F900D1124C097280F7E
:10110000391F30936E0120936D0174C08C3420F42C
:101110008A3408F499CE37C08C36C1F08E3699F1F6
:10112000883609F063C080916D0190916E01853021
:10113000910529F0079709F059C081E004C080911A
:101140006B01886018C08093000150C020916D0130
:1011500030916E012530310559F02730310581F08D
:101160002230310509F042C09260909304013EC0E4
:1011700080916B01877F80936B010E946E0536C062
:101180001092000133C080916D0190916E018F30FB
:10119000910539F04A9751F50E949D0584EF90E042
:1011A00004C00E949D058BEF90E00E94A3041EC026
:1011B000E0916C01F0E0EE0FFF1FE359FE4F40811C
:1011C00051816AE0649FC001659F900D1124820FD8
:1011D000931FC097918380830DC08C3128F48A318E
:1011E00028F4883119F006C08C3921F410927D0161
:1011F00001C0C1E08C2FDF91CF911F910895AF9274
:10120000BF92CF92DF92EF92FF920F931F93CF93F3
:10121000DF93D62EC72EB42EA52EF901B80123E0F8
:101220008202C00111249C012C5E3E4F790126E010
:1012300044E0CF010E943C0A10E0D0E001E0F70159
:10124000C491D0FF03C0FFEFEF1AFF0A111101C0D4
:10125000C295CF7010278C2F887019F48B2D9A2D82
:1012600002C08D2D9C2D0E94520AC2FD03C08B2D01
:101270009A2D02C08D2D9C2D0E94520AC1FD03C0E3
:101280008B2D9A2D02C08D2D9C2D0E94520AC0FDDF
:1012900003C08B2D9A2D02C08D2D9C2D0E94520AC9
:1012A000DF5FD63061F6DF91CF911F910F91FF90F4
:1012B000EF90DF90CF90BF90AF900C94500A8EBD0E
:1012C000000000000000000000000000000000001E
:1012D00000000000000008958EBD00000000000026
:1012E00000000000000000000000000000000000FE
:1012F0000000000000000000089529982D982A9809
:101300000E946C092A9A0895299A2D982A980E9479
:101310006C092A9A0895CF92DF92EF92FF921F9361
:10132000CF93DF93EC012196FC0114911123F1F08E
:10133000FE0184910E947D096E01F2E0CF0ED11C66
:10134000FE013196C4917601DC2FDC0DDE1541F0F3
:10135000F70184910E948409FFEFEF1AFF0AF6CF8C
:10136000C6018C0F911DEC011150E0CFDF91CF91A0
:101370001F91FF90EF90DF90CF900895209A2898CA
:10138000219A229A0E94890B84E00E949F0B81E09F
:101390000E94910B80E00E949A0B289A8FE19EE4B4
:1013A0000197F1F700C0000028989FEF29EF80E037
:1013B000915020408040E1F700C00000289A9FEF44
:1013C00022E587E0915020408040E1F700C0000016
:1013D00084E194E00E948B099FEF2BED85E0915012
:1013E00020408040E1F700C0000089E20E947D09B2
:1013F0008CE20C947D091F93CF93DF93CDB7DEB7BA
:1014000027970FB6F894DEBF0FBECDBF182F8AE224
:101410002F833E834B835A836D837C8399830E9401
:101420007D099981892F0E948409812F0E94840956
:101430005A81852F0E9484094B81842F0E94840940
:101440008BE20E947D097C81872F0E9484096D8137
:10145000862F0E9484093E81832F0E9484092F8158
:10146000822F27960FB6F894DEBF0FBECDBFDF9157
:10147000CF911F910C948409FB013197DF01A20FDA
:10148000B11D9D01FC013197DF01A40FB11DAD011C
:101490000E94FB098CE20E947D09299A2A980895EE
:1014A0002A9A0895CF93C82F892F0E946C098C2FF8
:1014B000CF910C945F09CF92DF92EF92FF920F933E
:1014C0001F93CF93DF936A01E9019B0121503109FA
:1014D0002C0F3D1FFC013197AF014C0D5D1D0E948B
:1014E000FB098CE20E947D09299A2A981C161D0688
:1014F000ACF476011E141F047CF4812F0E946C0949
:101500000EBD000000000000000000000000000010
:1015100081E0E81AF108EECF2197E8CF2A9ADF910F
:10152000CF911F910F91FF90EF90DF90CF90089592
:101530000F931F93209108013091090140910A01F6
:1015400050910B018C0160E070E080E090E00E941F
:101550005B0A1F910F910895CF93C82F86E30E94D5
:101560007D098C2F8370823041F0833091F081307F
:1015700011F088E403C088E20DC088E80E94840965
:1015800080EF90E090930B0180930A0180E491E05A
:101590000BC088EE0E94840980E491E090930B01D7
:1015A00080930A0180EF90E09093090180930801F5
:1015B000CF9108950C94BE099093C5008093C40008
:1015C000E0ECF0E0808182608083A1ECB0E08C915F
:1015D00088698C938C918B798C9380818E7F8083AA
:1015E0006093C20010920102109202021092FF0159
:1015F0001092000210927E010895DC019091000289
:101600008091FF01981761F0E92FF0E0E158FE4F5B
:1016100080818C939F5F9F739093000281E0089577
:1016200080E008954FB7F8943091010220910202B2
:10163000321710F0215C01C02150231B261718F02F
:10164000282FFC0103C04FBF80E008958E2F821B1E
:10165000861748F48191A32FB0E0A154BE4F8C931C
:101660003F5F3F73F3CF309301028091C1008062EE
:101670008093C1004FBF81E008951F920F920FB673
:101680000F9211248F93EF93FF93E09102028091C8
:101690000102E81306C08091C1008F7D8093C100D4
:1016A0000FC081E08E0F80930202F0E0E154FE4F04
:1016B00080818093C600809102028F738093020222
:1016C000FF91EF918F910F900FBE0F901F90189583
:1016D0001F920F920FB60F9211248F939F93EF9347
:1016E000FF93E091FF0181E08E0F8093FF019091C5
:1016F000C600F0E0E158FE4F90838F738093FF01A6
:10170000FF91EF919F918F910F900FBE0F901F90BF
:1017100018952A9A84B18C6284B98CB580658CBD89
:101720000895811103C08CB5806202C08CB58F7D95
:101730008CBD08959CB5937F892B8CBD08959CB575
:10174000282F23709C7F922B9CBD9DB582FB882700
:1017500080F99E7F892B8DBD0895CF93DF931F92D3
:10176000CDB7DEB7898361E0CE0101960E94120BEE
:101770000F90DF91CF9108958AB188678AB9579801
:1017800087B18C7F87B90895CF93DF93FC01849153
:10179000EF012196882321F00E946C03FE01F7CF10
:1017A000DF91CF91089580910302809304021092FB
:1017B00003024F9903C081E080930302309905C072
:1017C00080910302826080930302319905C0809169
:1017D00003028460809303020895CF93DF931F92E6
:1017E000CDB7DEB70E94BC0B8BB1877A8BB966E0B0
:1017F0008FEC90E00E94DC0A78940E94DA0A80E084
:1018000090E00E94980A0E94810281E00E94AC0A46
:101810005D9A8BB180658BB980E894E00E94C40B1F
:101820002FEF87EA91E6215080409040E1F700C019
:10183000000089E794E00E94C40B8BB188658BB9E6
:1018400012E00E94D30BCE0101960E94FD0A88236C
:1018500029F05E9889810E946C035E9A8091030250
:1018600080FF05C08091040280FF0E946902809180
:10187000030281FF08C08091040281FD04C0109220
:1018800003010E9469028091030282FF08C08091D7
:10189000040282FD04C0109303010E94690280913A
:1018A0000301823011F45C98CCCF5C9ACACFAA1B9A
:1018B000BB1B51E107C0AA1FBB1FA617B70710F03B
:1018C000A61BB70B881F991F5A95A9F7809590956D
:1018D000BC01CD010895EE0FFF1F0590F491E02D9E
:0618E0000994F894FFCF0B
:0C18E60001FFFF02010170704001F000E2
:00000001FF
